:03000000020006F5
:03005F0002000399
:030003000201A651
:2000620090E6007410F000000090E60174C0F000000090E60B7403F000000090E61474E231
:20008200F000000090E61274A2F000000090E6047480F000000090E6047482F00000009092
:2000A200E6047484F000000090E6047486F000000090E6047488F000000090E604E4F00054
:2000C200000090E618E4F000000090E6497482F000000090E6497482F00000002290E6904A
:2000E200E0FE7F0090E691E07C004207EC4206C3EF9401EE940050012290F000E0FF5401D1
:2001020024FF9280EF03540124FF928190E6497482F0223080067EE67F0180047EEC7F015C
:200122008F057F803081067BF27C0180047BF87C018B088C09750A80780079F87C008E8279
:200142008D838FF01201C6FB60130EBE00010D88828983EBF0A3A882A9830C80E188828903
:2001620083742CF0740128FEE439FFEC04FDAA08AB09AC0A8A828B838CF01201C6F96013CF
:200182000ABA00010B8E828F83E9F0A3AE82AF830D80E100000090E698E4F000000090E6C7
:2001A20099EDF02275B203120062D280D28190E6A3E020E2031200DF90E6A5E020E3EF1274
:0401C200011580EAB9
:1801E6005041303D31005041303D30005041313D31005041313D300045
:06003500E478FFF6D8FD9F
:200013007900E94400601B7A009001FE780075A000E493F2A308B8000205A0D9F4DAF27595
:02003300A0FF2C
:20003B007800E84400600A790075A000E4F309D8FC7800E84400600C7900900000E4F0A3C5
:04005B00D8FCD9FAFA
:0D00060075810A1201E2E582600302000329
:1C01C60020F71430F6148883A88220F507E6A88375830022E280F7E49322E02248
:0401E2007582002200
:00000001FF
