:03000000020006F5
:03005F0002000399
:0300030002009068
:20006200AE82AF837C007D00C3EC9EED9F501E7AC87B00000000EA24FFF8EB34FFF9880279
:200082008903E84970ED0CBC00DE0D80DB2275B203D280C2819003E8120062C280D2819041
:0700A20003E812006280EA8E
:06003500E478FFF6D8FD9F
:200013007900E94400601B7A009000AD780075A000E493F2A308B8000205A0D9F4DAF275E7
:02003300A0FF2C
:20003B007800E84400600A790075A000E4F309D8FC7800E84400600C7900900000E4F0A3C5
:04005B00D8FCD9FAFA
:0D0006007581071200A9E582600302000366
:0400A900758200223A
:00000001FF
