:020000040000FA
:04000000020039328F
:01000B0032C2
:0100130032BA
:01001B0032B2
:0100230032AA
:01002B0032A2
:2000330002056B02009575812012056FE58260030200367900E94400601B7A0090057D78E1
:200053000175A000E493F2A308B8000205A0D9F4DAF275A0FFE478FFF6D8FD7800E844008D
:20007300600A790175A000E4F309D8FC7800E84400600C7900900001E4F0A3D8FCD9FA0286
:200093000036C202C200C201750800120000750900750A00750B00750C00750D00750E003C
:2000B300750F007510007515007516007E007400FF54C0700302017B751B00751C007C007C
:2000D3007D007A007B00ECC39AFCED9BFD74022CFCE43DFDE4F517F518C3E5179CE5189D23
:2000F3005032C004C005A817A918E4FE748028FAE439FBAC1BAD1CE82CF582E93DF583E0B9
:20011300FF8A828B83F00517E4B517020518D005D00480C5750980750A007E007F00EE245E
:2001330080FEEF34FFFFE50BC39EF50BE50C9FF50CE511C39EF511E5129FF512E513C39ED8
:20015300F513E5149FF514E50DC39EF50DE50E9FF50EE50FC39EF50FE5109FF510E515C34A
:200173009EF515E5169FF516D2E843D82090E668E043E009F090E65CE043E03DF0D2AF903D
:20019300E680E020E105D20012000090E680E053E0F7F0538EF8C202120000E50860061218
:2001B30001F77508003002F012000050EBC20212000020001C90E682E030E70790E682E068
:2001D30020E1EC90E682E030E60790E682E020E0DE12000012000080BF90E50DE030E40299
:2001F300C322D32290E6B9E0FF24F45003020555EF240A83F582EF241083F583E473F6B00B
:20021300559955552955F0EADEE4020305040505020502020202120000400302056290E6BE
:20023300BBE0FFBF01028017BF02028040BF03028059BF06028017BF070280400202D3904B
:20025300E6B3E50AF090E6B4E509F00205621201EC500F90E6B3E50CF090E6B4E50BF0022E
:20027300056290E6A0E043E001F002056290E6B3E512F090E6B4E511F002056290E6B3E5FA
:2002930014F090E6B4E513F002056290E6BAE0F582120000AE82AF837D008E028F038D04A1
:2002B300EE4F60118A068B0790E6B3EFF090E6B4EAF002056290E6A0E043E001F002056273
:2002D30090E6A0E043E001F002056212000002056212000002056212000002056212000015
:2002F300020562120000400302056290E6B8E0FFBF8002800DBF8102802EBF8202803F02F5
:2003130003A5A200E43325E0FFA201E433FEEF420690E740EEF090E741E4F090E68AF090D5
:20033300E68B7402F002056290E740E4F090E741F090E68AF090E68B7402F002056290E601
:20035300BCE0FF53077E7E0090E6BCE0FDC374809DE433FD7C004207EC4206EF2473F5822C
:20037300EE3405F583E493FF7E0074A12FFF74E63EFE8F828E83E0FF53070190E740EFF00C
:2003930090E741E4F090E68AF090E68B7402F002056290E6A0E043E001F002056212000079
:2003B300400302056290E6B8E0FF6008BF0202801B02056290E6BAE0FFBF0105C2000205A5
:2003D3006290E6A0E043E001F002056290E6BAE0600302048E90E6BCE0FF53077E7E009037
:2003F300E6BCE0FDC374809DE4337C004207EC4206EF2473F582EE3405F583E493FF7E0077
:2004130074A12FFF74E63EFE90E6BCE0FD53057E7C0090E6BCE0FBC374809BE433FB7A00A4
:200433004205EA4204ED2473F582EC3405F583E493FD7C0074A12DFD74E63CFC8D828C83BB
:20045300E0FD5305FE8F828E83EDF090E6BCE0FF530780E423CFC423541F6FCF541FCF6F4D
:20047300CF30E40244E090E6BCE0FE740F5E90E6832FF0E043E020F002056290E6A0E043A2
:20049300E001F0020562120000400302056290E6B8E0FF6008BF0202802602054B90E6BAF1
:2004B300E0FFBF0105D20002056290E6BAE0FFBF020302056290E6A0E043E001F00205629B
:2004D30090E6BCE0FF53077E7E0090E6BCE0FDC374809DE4337C004207EC4206EF2473F5B4
:2004F30082EE3405F583E493FF7E0074A12FFF74E63EFE90E6BCE0FD53057E7C0090E6BC68
:20051300E0FBC374809BE433FB7A004205EA4204ED2473F582EC3405F583E493FD7C00749C
:20053300A12DFD74E63CFC8D828C83E0FD4305018F828E83EDF0801790E6A0E043E001F067
:20055300800D120000500890E6A0E043E001F090E6A0E043E080F02253D8EF327582002277
:0A0573000001020203030404050561
:00000001FF
