:04000000020039328F
:01000B0032C2
:0100130032BA
:01001B0032B2
:0100230032AA
:01002B0032A2
:0300330002056B58
:0300920002003633
:0300360002009530
:10009500C202C200C2017508001200007509007590
:1000A5000A00750B00750C00750D00750E00750FB7
:1000B500007510007515007516007E007400FF545C
:1000C500C0700302017B751B00751C007C007D0060
:1000D5007A007B00ECC39AFCED9BFD74022CFCE4DA
:1000E5003DFDE4F517F518C3E5179CE5189D50325D
:1000F500C004C005A817A918E4FE748028FAE439DD
:10010500FBAC1BAD1CE82CF582E93DF583E0FF8ACD
:10011500828B83F00517E4B517020518D005D004C6
:1001250080C5750980750A007E007F00EE2480FE7B
:10013500EF34FFFFE50BC39EF50BE50C9FF50CE5D2
:1001450011C39EF511E5129FF512E513C39EF51334
:10015500E5149FF514E50DC39EF50DE50E9FF50E0F
:10016500E50FC39EF50FE5109FF510E515C39EF548
:1001750015E5169FF516D2E843D82090E668E043CA
:10018500E009F090E65CE043E03DF0D2AF90E68018
:10019500E020E105D20012000090E680E053E0F790
:1001A500F0538EF8C202120000E50860061201F74E
:1001B5007508003002F012000050EBC20212000078
:1001C50020001C90E682E030E70790E682E020E11F
:1001D500EC90E682E030E60790E682E020E0DE1271
:1001E500000012000080BF90E50DE030E402C3225C
:1001F500D32290E6B9E0FF24F45003020555EF241D
:100205000A83F582EF241083F583E473F6B05599DC
:1002150055552955F0EADEE40203050405050205F6
:1002250002020202120000400302056290E6BBE0F2
:10023500FFBF01028017BF02028040BF0302805941
:10024500BF06028017BF070280400202D390E6B3C3
:10025500E50AF090E6B4E509F00205621201EC50FA
:100265000F90E6B3E50CF090E6B4E50BF0020562FD
:1002750090E6A0E043E001F002056290E6B3E512E6
:10028500F090E6B4E511F002056290E6B3E514F0EE
:1002950090E6B4E513F002056290E6BAE0F5821245
:1002A5000000AE82AF837D008E028F038D04EE4F7A
:1002B50060118A068B0790E6B3EFF090E6B4EAF09A
:1002C50002056290E6A0E043E001F002056290E6D7
:1002D500A0E043E001F0020562120000020562128F
:1002E500000002056212000002056212000002050C
:1002F50062120000400302056290E6B8E0FFBF808D
:1003050002800DBF8102802EBF8202803F0203A5BD
:10031500A200E43325E0FFA201E433FEEF4206909C
:10032500E740EEF090E741E4F090E68AF090E68B46
:100335007402F002056290E740E4F090E741F09026
:10034500E68AF090E68B7402F002056290E6BCE066
:10035500FF53077E7E0090E6BCE0FDC374809DE4FC
:1003650033FD7C004207EC4206EF2473F582EE3440
:1003750005F583E493FF7E0074A12FFF74E63EFE2E
:100385008F828E83E0FF53070190E740EFF090E7FF
:1003950041E4F090E68AF090E68B7402F002056283
:1003A50090E6A0E043E001F0020562120000400380
:1003B50002056290E6B8E0FF6008BF0202801B02FA
:1003C500056290E6BAE0FFBF0105C2000205629032
:1003D500E6A0E043E001F002056290E6BAE06003C2
:1003E50002048E90E6BCE0FF53077E7E0090E6BCDB
:1003F500E0FDC374809DE4337C004207EC4206EFC8
:100405002473F582EE3405F583E493FF7E0074A131
:100415002FFF74E63EFE90E6BCE0FD53057E7C00B2
:1004250090E6BCE0FBC374809BE433FB7A00420595
:10043500EA4204ED2473F582EC3405F583E493FD7B
:100445007C0074A12DFD74E63CFC8D828C83E0FD5F
:100455005305FE8F828E83EDF090E6BCE0FF5307D7
:1004650080E423CFC423541F6FCF541FCF6FCF30E9
:10047500E40244E090E6BCE0FE740F5E90E6832F54
:10048500F0E043E020F002056290E6A0E043E001E1
:10049500F0020562120000400302056290E6B8E032
:1004A500FF6008BF0202802602054B90E6BAE0FF16
:1004B500BF0105D20002056290E6BAE0FFBF020364
:1004C50002056290E6A0E043E001F002056290E6D5
:1004D500BCE0FF53077E7E0090E6BCE0FDC3748060
:1004E5009DE4337C004207EC4206EF2473F582EE6F
:1004F5003405F583E493FF7E0074A12FFF74E63E77
:10050500FE90E6BCE0FD53057E7C0090E6BCE0FB7A
:10051500C374809BE433FB7A004205EA4204ED2470
:1005250073F582EC3405F583E493FD7C0074A12D0D
:10053500FD74E63CFC8D828C83E0FD4305018F82D2
:100545008E83EDF0801790E6A0E043E001F0800D8A
:10055500120000500890E6A0E043E001F090E6A00C
:0A056500E043E080F02253D8EF32AB
:0A0573000001020203030404050561
:06006800E478FFF6D8FD6C
:100046007900E94400601B7A0090057D780175A06F
:1000560000E493F2A308B8000205A0D9F4DAF27519
:02006600A0FFF9
:10006E007800E84400600A790175A000E4F309D82D
:10007E00FC7800E84400600C7900900001E4F0A3E5
:04008E00D8FCD9FAC7
:0D00390075812012056FE58260030200361C
:04056F00758200226F
:00000001FF
